{
  "_format": "hh-sol-artifact-1",
  "contractName": "CNFT",
  "sourceName": "contracts/CNFT.sol",
  "abi": [
    {
      "inputs": [
        {
          "internalType": "string",
          "name": "_name",
          "type": "string"
        },
        {
          "internalType": "string",
          "name": "_symbol",
          "type": "string"
        }
      ],
      "stateMutability": "nonpayable",
      "type": "constructor"
    },
    {
      "inputs": [
        {
          "internalType": "address",
          "name": "sender",
          "type": "address"
        },
        {
          "internalType": "uint256",
          "name": "tokenId",
          "type": "uint256"
        },
        {
          "internalType": "address",
          "name": "owner",
          "type": "address"
        }
      ],
      "name": "ERC721IncorrectOwner",
      "type": "error"
    },
    {
      "inputs": [
        {
          "internalType": "address",
          "name": "operator",
          "type": "address"
        },
        {
          "internalType": "uint256",
          "name": "tokenId",
          "type": "uint256"
        }
      ],
      "name": "ERC721InsufficientApproval",
      "type": "error"
    },
    {
      "inputs": [
        {
          "internalType": "address",
          "name": "approver",
          "type": "address"
        }
      ],
      "name": "ERC721InvalidApprover",
      "type": "error"
    },
    {
      "inputs": [
        {
          "internalType": "address",
          "name": "operator",
          "type": "address"
        }
      ],
      "name": "ERC721InvalidOperator",
      "type": "error"
    },
    {
      "inputs": [
        {
          "internalType": "address",
          "name": "owner",
          "type": "address"
        }
      ],
      "name": "ERC721InvalidOwner",
      "type": "error"
    },
    {
      "inputs": [
        {
          "internalType": "address",
          "name": "receiver",
          "type": "address"
        }
      ],
      "name": "ERC721InvalidReceiver",
      "type": "error"
    },
    {
      "inputs": [
        {
          "internalType": "address",
          "name": "sender",
          "type": "address"
        }
      ],
      "name": "ERC721InvalidSender",
      "type": "error"
    },
    {
      "inputs": [
        {
          "internalType": "uint256",
          "name": "tokenId",
          "type": "uint256"
        }
      ],
      "name": "ERC721NonexistentToken",
      "type": "error"
    },
    {
      "inputs": [
        {
          "internalType": "address",
          "name": "owner",
          "type": "address"
        }
      ],
      "name": "OwnableInvalidOwner",
      "type": "error"
    },
    {
      "inputs": [
        {
          "internalType": "address",
          "name": "account",
          "type": "address"
        }
      ],
      "name": "OwnableUnauthorizedAccount",
      "type": "error"
    },
    {
      "anonymous": false,
      "inputs": [
        {
          "indexed": true,
          "internalType": "address",
          "name": "owner",
          "type": "address"
        },
        {
          "indexed": true,
          "internalType": "address",
          "name": "approved",
          "type": "address"
        },
        {
          "indexed": true,
          "internalType": "uint256",
          "name": "tokenId",
          "type": "uint256"
        }
      ],
      "name": "Approval",
      "type": "event"
    },
    {
      "anonymous": false,
      "inputs": [
        {
          "indexed": true,
          "internalType": "address",
          "name": "owner",
          "type": "address"
        },
        {
          "indexed": true,
          "internalType": "address",
          "name": "operator",
          "type": "address"
        },
        {
          "indexed": false,
          "internalType": "bool",
          "name": "approved",
          "type": "bool"
        }
      ],
      "name": "ApprovalForAll",
      "type": "event"
    },
    {
      "anonymous": false,
      "inputs": [
        {
          "indexed": true,
          "internalType": "address",
          "name": "previousOwner",
          "type": "address"
        },
        {
          "indexed": true,
          "internalType": "address",
          "name": "newOwner",
          "type": "address"
        }
      ],
      "name": "OwnershipTransferred",
      "type": "event"
    },
    {
      "anonymous": false,
      "inputs": [
        {
          "indexed": true,
          "internalType": "address",
          "name": "from",
          "type": "address"
        },
        {
          "indexed": true,
          "internalType": "address",
          "name": "to",
          "type": "address"
        },
        {
          "indexed": true,
          "internalType": "uint256",
          "name": "tokenId",
          "type": "uint256"
        }
      ],
      "name": "Transfer",
      "type": "event"
    },
    {
      "inputs": [
        {
          "internalType": "address",
          "name": "to",
          "type": "address"
        },
        {
          "internalType": "uint256",
          "name": "tokenId",
          "type": "uint256"
        }
      ],
      "name": "approve",
      "outputs": [],
      "stateMutability": "nonpayable",
      "type": "function"
    },
    {
      "inputs": [
        {
          "internalType": "address",
          "name": "owner",
          "type": "address"
        }
      ],
      "name": "balanceOf",
      "outputs": [
        {
          "internalType": "uint256",
          "name": "",
          "type": "uint256"
        }
      ],
      "stateMutability": "view",
      "type": "function"
    },
    {
      "inputs": [],
      "name": "baseExtension",
      "outputs": [
        {
          "internalType": "string",
          "name": "",
          "type": "string"
        }
      ],
      "stateMutability": "view",
      "type": "function"
    },
    {
      "inputs": [],
      "name": "baseURI",
      "outputs": [
        {
          "internalType": "string",
          "name": "",
          "type": "string"
        }
      ],
      "stateMutability": "view",
      "type": "function"
    },
    {
      "inputs": [
        {
          "internalType": "uint256",
          "name": "tokenId",
          "type": "uint256"
        }
      ],
      "name": "getApproved",
      "outputs": [
        {
          "internalType": "address",
          "name": "",
          "type": "address"
        }
      ],
      "stateMutability": "view",
      "type": "function"
    },
    {
      "inputs": [
        {
          "internalType": "address",
          "name": "owner",
          "type": "address"
        },
        {
          "internalType": "address",
          "name": "operator",
          "type": "address"
        }
      ],
      "name": "isApprovedForAll",
      "outputs": [
        {
          "internalType": "bool",
          "name": "",
          "type": "bool"
        }
      ],
      "stateMutability": "view",
      "type": "function"
    },
    {
      "inputs": [],
      "name": "maxMintAmount",
      "outputs": [
        {
          "internalType": "uint256",
          "name": "",
          "type": "uint256"
        }
      ],
      "stateMutability": "view",
      "type": "function"
    },
    {
      "inputs": [],
      "name": "maxSupply",
      "outputs": [
        {
          "internalType": "uint256",
          "name": "",
          "type": "uint256"
        }
      ],
      "stateMutability": "view",
      "type": "function"
    },
    {
      "inputs": [],
      "name": "name",
      "outputs": [
        {
          "internalType": "string",
          "name": "",
          "type": "string"
        }
      ],
      "stateMutability": "view",
      "type": "function"
    },
    {
      "inputs": [],
      "name": "owner",
      "outputs": [
        {
          "internalType": "address",
          "name": "",
          "type": "address"
        }
      ],
      "stateMutability": "view",
      "type": "function"
    },
    {
      "inputs": [
        {
          "internalType": "uint256",
          "name": "tokenId",
          "type": "uint256"
        }
      ],
      "name": "ownerOf",
      "outputs": [
        {
          "internalType": "address",
          "name": "",
          "type": "address"
        }
      ],
      "stateMutability": "view",
      "type": "function"
    },
    {
      "inputs": [],
      "name": "renounceOwnership",
      "outputs": [],
      "stateMutability": "nonpayable",
      "type": "function"
    },
    {
      "inputs": [],
      "name": "royalty",
      "outputs": [
        {
          "internalType": "uint96",
          "name": "",
          "type": "uint96"
        }
      ],
      "stateMutability": "view",
      "type": "function"
    },
    {
      "inputs": [
        {
          "internalType": "address",
          "name": "from",
          "type": "address"
        },
        {
          "internalType": "address",
          "name": "to",
          "type": "address"
        },
        {
          "internalType": "uint256",
          "name": "tokenId",
          "type": "uint256"
        }
      ],
      "name": "safeTransferFrom",
      "outputs": [],
      "stateMutability": "nonpayable",
      "type": "function"
    },
    {
      "inputs": [
        {
          "internalType": "address",
          "name": "from",
          "type": "address"
        },
        {
          "internalType": "address",
          "name": "to",
          "type": "address"
        },
        {
          "internalType": "uint256",
          "name": "tokenId",
          "type": "uint256"
        },
        {
          "internalType": "bytes",
          "name": "data",
          "type": "bytes"
        }
      ],
      "name": "safeTransferFrom",
      "outputs": [],
      "stateMutability": "nonpayable",
      "type": "function"
    },
    {
      "inputs": [
        {
          "internalType": "address",
          "name": "operator",
          "type": "address"
        },
        {
          "internalType": "bool",
          "name": "approved",
          "type": "bool"
        }
      ],
      "name": "setApprovalForAll",
      "outputs": [],
      "stateMutability": "nonpayable",
      "type": "function"
    },
    {
      "inputs": [
        {
          "internalType": "bytes4",
          "name": "interfaceId",
          "type": "bytes4"
        }
      ],
      "name": "supportsInterface",
      "outputs": [
        {
          "internalType": "bool",
          "name": "",
          "type": "bool"
        }
      ],
      "stateMutability": "view",
      "type": "function"
    },
    {
      "inputs": [],
      "name": "symbol",
      "outputs": [
        {
          "internalType": "string",
          "name": "",
          "type": "string"
        }
      ],
      "stateMutability": "view",
      "type": "function"
    },
    {
      "inputs": [
        {
          "internalType": "uint256",
          "name": "tokenId",
          "type": "uint256"
        }
      ],
      "name": "tokenURI",
      "outputs": [
        {
          "internalType": "string",
          "name": "",
          "type": "string"
        }
      ],
      "stateMutability": "view",
      "type": "function"
    },
    {
      "inputs": [
        {
          "internalType": "address",
          "name": "from",
          "type": "address"
        },
        {
          "internalType": "address",
          "name": "to",
          "type": "address"
        },
        {
          "internalType": "uint256",
          "name": "tokenId",
          "type": "uint256"
        }
      ],
      "name": "transferFrom",
      "outputs": [],
      "stateMutability": "nonpayable",
      "type": "function"
    },
    {
      "inputs": [
        {
          "internalType": "address",
          "name": "newOwner",
          "type": "address"
        }
      ],
      "name": "transferOwnership",
      "outputs": [],
      "stateMutability": "nonpayable",
      "type": "function"
    }
  ],
  "bytecode": "0x60c06040526005608090815264173539b7b760d91b60a052600890620000269082620001c0565b506005600955620186a0600a553480156200004057600080fd5b50604051620014c8380380620014c883398101604081905262000063916200033b565b3382826000620000748382620001c0565b506001620000838282620001c0565b5050506001600160a01b038116620000b557604051631e4fbdf760e01b81526000600482015260240160405180910390fd5b620000c081620000c9565b505050620003a5565b600680546001600160a01b038381166001600160a01b0319831681179093556040519116919082907f8be0079c531659141344cd1fd0a4f28419497f9722a3daafe3b4186f6b6457e090600090a35050565b634e487b7160e01b600052604160045260246000fd5b600181811c908216806200014657607f821691505b6020821081036200016757634e487b7160e01b600052602260045260246000fd5b50919050565b601f821115620001bb57600081815260208120601f850160051c81016020861015620001965750805b601f850160051c820191505b81811015620001b757828155600101620001a2565b5050505b505050565b81516001600160401b03811115620001dc57620001dc6200011b565b620001f481620001ed845462000131565b846200016d565b602080601f8311600181146200022c5760008415620002135750858301515b600019600386901b1c1916600185901b178555620001b7565b600085815260208120601f198616915b828110156200025d578886015182559484019460019091019084016200023c565b50858210156200027c5787850151600019600388901b60f8161c191681555b5050505050600190811b01905550565b600082601f8301126200029e57600080fd5b81516001600160401b0380821115620002bb57620002bb6200011b565b604051601f8301601f19908116603f01168101908282118183101715620002e657620002e66200011b565b816040528381526020925086838588010111156200030357600080fd5b600091505b8382101562000327578582018301518183018401529082019062000308565b600093810190920192909252949350505050565b600080604083850312156200034f57600080fd5b82516001600160401b03808211156200036757600080fd5b62000375868387016200028c565b935060208501519150808211156200038c57600080fd5b506200039b858286016200028c565b9150509250929050565b61111380620003b56000396000f3fe608060405234801561001057600080fd5b50600436106101375760003560e01c806370a08231116100b8578063b88d4fde1161007c578063b88d4fde14610278578063c66828621461028b578063c87b56dd14610293578063d5abeb01146102a6578063e985e9c5146102af578063f2fde38b146102c257600080fd5b806370a0823114610231578063715018a6146102445780638da5cb5b1461024c57806395d89b411461025d578063a22cb4651461026557600080fd5b806323b872dd116100ff57806323b872dd146101c557806329ee566c146101d857806342842e0e146102035780636352211e146102165780636c0360eb1461022957600080fd5b806301ffc9a71461013c57806306fdde0314610164578063081812fc14610179578063095ea7b314610199578063239c70ae146101ae575b600080fd5b61014f61014a366004610d6f565b6102d5565b60405190151581526020015b60405180910390f35b61016c610327565b60405161015b9190610ddc565b61018c610187366004610def565b6103b9565b60405161015b9190610e08565b6101ac6101a7366004610e38565b6103e2565b005b6101b760095481565b60405190815260200161015b565b6101ac6101d3366004610e62565b6103f1565b600b546101eb906001600160601b031681565b6040516001600160601b03909116815260200161015b565b6101ac610211366004610e62565b610485565b61018c610224366004610def565b6104a5565b61016c6104b0565b6101b761023f366004610e9e565b61053e565b6101ac610586565b6006546001600160a01b031661018c565b61016c61059a565b6101ac610273366004610eb9565b6105a9565b6101ac610286366004610f0b565b6105b4565b61016c6105cc565b61016c6102a1366004610def565b6105d9565b6101b7600a5481565b61014f6102bd366004610fe7565b61064e565b6101ac6102d0366004610e9e565b61067c565b60006001600160e01b031982166380ac58cd60e01b148061030657506001600160e01b03198216635b5e139f60e01b145b8061032157506301ffc9a760e01b6001600160e01b03198316145b92915050565b6060600080546103369061101a565b80601f01602080910402602001604051908101604052809291908181526020018280546103629061101a565b80156103af5780601f10610384576101008083540402835291602001916103af565b820191906000526020600020905b81548152906001019060200180831161039257829003601f168201915b5050505050905090565b60006103c4826106ba565b506000828152600460205260409020546001600160a01b0316610321565b6103ed8282336106f3565b5050565b6001600160a01b038216610424576000604051633250574960e11b815260040161041b9190610e08565b60405180910390fd5b6000610431838333610700565b9050836001600160a01b0316816001600160a01b03161461047f576040516364283d7b60e01b81526001600160a01b038086166004830152602482018490528216604482015260640161041b565b50505050565b6104a0838383604051806020016040528060008152506105b4565b505050565b6000610321826106ba565b600780546104bd9061101a565b80601f01602080910402602001604051908101604052809291908181526020018280546104e99061101a565b80156105365780601f1061050b57610100808354040283529160200191610536565b820191906000526020600020905b81548152906001019060200180831161051957829003601f168201915b505050505081565b60006001600160a01b03821661056a5760006040516322718ad960e21b815260040161041b9190610e08565b506001600160a01b031660009081526003602052604090205490565b61058e6107f9565b6105986000610826565b565b6060600180546103369061101a565b6103ed338383610878565b6105bf8484846103f1565b61047f338585858561090e565b600880546104bd9061101a565b60606105e4826106ba565b5060006105fc60408051602081019091526000815290565b9050600081511161061c5760405180602001604052806000815250610647565b8061062684610a27565b604051602001610637929190611054565b6040516020818303038152906040525b9392505050565b6001600160a01b03918216600090815260056020908152604080832093909416825291909152205460ff1690565b6106846107f9565b6001600160a01b0381166106ae576000604051631e4fbdf760e01b815260040161041b9190610e08565b6106b781610826565b50565b6000818152600260205260408120546001600160a01b03168061032157604051637e27328960e01b81526004810184905260240161041b565b6104a08383836001610aba565b6000828152600260205260408120546001600160a01b039081169083161561072d5761072d818486610bb7565b6001600160a01b0381161561076b5761074a600085600080610aba565b6001600160a01b038116600090815260036020526040902080546000190190555b6001600160a01b0385161561079a576001600160a01b0385166000908152600360205260409020805460010190555b60008481526002602052604080822080546001600160a01b0319166001600160a01b0389811691821790925591518793918516917fddf252ad1be2c89b69c2b068fc378daa952ba7f163c4a11628f55a4df523b3ef91a4949350505050565b6006546001600160a01b03163314610598573360405163118cdaa760e01b815260040161041b9190610e08565b600680546001600160a01b038381166001600160a01b0319831681179093556040519116919082907f8be0079c531659141344cd1fd0a4f28419497f9722a3daafe3b4186f6b6457e090600090a35050565b6001600160a01b0382166108a15781604051630b61174360e31b815260040161041b9190610e08565b6001600160a01b03838116600081815260056020908152604080832094871680845294825291829020805460ff191686151590811790915591519182527f17307eab39ab6107e8899845ad3d59bd9653f200f220920489ca2b5937696c31910160405180910390a3505050565b6001600160a01b0383163b15610a2057604051630a85bd0160e11b81526001600160a01b0384169063150b7a0290610950908890889087908790600401611083565b6020604051808303816000875af192505050801561098b575060408051601f3d908101601f19168201909252610988918101906110c0565b60015b6109eb573d8080156109b9576040519150601f19603f3d011682016040523d82523d6000602084013e6109be565b606091505b5080516000036109e35783604051633250574960e11b815260040161041b9190610e08565b805181602001fd5b6001600160e01b03198116630a85bd0160e11b14610a1e5783604051633250574960e11b815260040161041b9190610e08565b505b5050505050565b60606000610a3483610c1b565b600101905060008167ffffffffffffffff811115610a5457610a54610ef5565b6040519080825280601f01601f191660200182016040528015610a7e576020820181803683370190505b5090508181016020015b600019016f181899199a1a9b1b9c1cb0b131b232b360811b600a86061a8153600a8504945084610a8857509392505050565b8080610ace57506001600160a01b03821615155b15610b87576000610ade846106ba565b90506001600160a01b03831615801590610b0a5750826001600160a01b0316816001600160a01b031614155b8015610b1d5750610b1b818461064e565b155b15610b3d578260405163a9fbf51f60e01b815260040161041b9190610e08565b8115610b855783856001600160a01b0316826001600160a01b03167f8c5be1e5ebec7d5bd14f71427d1e84f3dd0314c0f7b2291e5b200ac8c7c3b92560405160405180910390a45b505b5050600090815260046020526040902080546001600160a01b0319166001600160a01b0392909216919091179055565b610bc2838383610cf3565b6104a0576001600160a01b038316610bf057604051637e27328960e01b81526004810182905260240161041b565b60405163177e802f60e01b81526001600160a01b03831660048201526024810182905260440161041b565b60008072184f03e93ff9f4daa797ed6e38ed64bf6a1f0160401b8310610c5a5772184f03e93ff9f4daa797ed6e38ed64bf6a1f0160401b830492506040015b6d04ee2d6d415b85acef81000000008310610c86576d04ee2d6d415b85acef8100000000830492506020015b662386f26fc100008310610ca457662386f26fc10000830492506010015b6305f5e1008310610cbc576305f5e100830492506008015b6127108310610cd057612710830492506004015b60648310610ce2576064830492506002015b600a83106103215760010192915050565b60006001600160a01b03831615801590610d515750826001600160a01b0316846001600160a01b03161480610d2d5750610d2d848461064e565b80610d5157506000828152600460205260409020546001600160a01b038481169116145b949350505050565b6001600160e01b0319811681146106b757600080fd5b600060208284031215610d8157600080fd5b813561064781610d59565b60005b83811015610da7578181015183820152602001610d8f565b50506000910152565b60008151808452610dc8816020860160208601610d8c565b601f01601f19169290920160200192915050565b6020815260006106476020830184610db0565b600060208284031215610e0157600080fd5b5035919050565b6001600160a01b0391909116815260200190565b80356001600160a01b0381168114610e3357600080fd5b919050565b60008060408385031215610e4b57600080fd5b610e5483610e1c565b946020939093013593505050565b600080600060608486031215610e7757600080fd5b610e8084610e1c565b9250610e8e60208501610e1c565b9150604084013590509250925092565b600060208284031215610eb057600080fd5b61064782610e1c565b60008060408385031215610ecc57600080fd5b610ed583610e1c565b915060208301358015158114610eea57600080fd5b809150509250929050565b634e487b7160e01b600052604160045260246000fd5b60008060008060808587031215610f2157600080fd5b610f2a85610e1c565b9350610f3860208601610e1c565b925060408501359150606085013567ffffffffffffffff80821115610f5c57600080fd5b818701915087601f830112610f7057600080fd5b813581811115610f8257610f82610ef5565b604051601f8201601f19908116603f01168101908382118183101715610faa57610faa610ef5565b816040528281528a6020848701011115610fc357600080fd5b82602086016020830137600060208483010152809550505050505092959194509250565b60008060408385031215610ffa57600080fd5b61100383610e1c565b915061101160208401610e1c565b90509250929050565b600181811c9082168061102e57607f821691505b60208210810361104e57634e487b7160e01b600052602260045260246000fd5b50919050565b60008351611066818460208801610d8c565b83519083019061107a818360208801610d8c565b01949350505050565b6001600160a01b03858116825284166020820152604081018390526080606082018190526000906110b690830184610db0565b9695505050505050565b6000602082840312156110d257600080fd5b815161064781610d5956fea264697066735822122041f4a84d0e605fccf2ca69eb6d848bb034d4d8d4b2c7835d2a3fe244a72b8a0064736f6c63430008140033",
  "linkReferences": {},
  "deployedLinkReferences": {}
}