{
  "_format": "hh-sol-artifact-1",
  "contractName": "NFTFactory",
  "sourceName": "contracts/NFTFactory.sol",
  "abi": [
    {
      "inputs": [
        {
          "internalType": "address",
          "name": "_marketAddress",
          "type": "address"
        }
      ],
      "stateMutability": "nonpayable",
      "type": "constructor"
    },
    {
      "inputs": [
        {
          "internalType": "address",
          "name": "owner",
          "type": "address"
        }
      ],
      "name": "OwnableInvalidOwner",
      "type": "error"
    },
    {
      "inputs": [
        {
          "internalType": "address",
          "name": "account",
          "type": "address"
        }
      ],
      "name": "OwnableUnauthorizedAccount",
      "type": "error"
    },
    {
      "anonymous": false,
      "inputs": [
        {
          "indexed": true,
          "internalType": "address",
          "name": "collectionAddress",
          "type": "address"
        }
      ],
      "name": "CollectionCreated",
      "type": "event"
    },
    {
      "anonymous": false,
      "inputs": [
        {
          "indexed": true,
          "internalType": "address",
          "name": "previousOwner",
          "type": "address"
        },
        {
          "indexed": true,
          "internalType": "address",
          "name": "newOwner",
          "type": "address"
        }
      ],
      "name": "OwnershipTransferred",
      "type": "event"
    },
    {
      "inputs": [
        {
          "internalType": "string",
          "name": "",
          "type": "string"
        },
        {
          "internalType": "uint256",
          "name": "",
          "type": "uint256"
        }
      ],
      "name": "categories",
      "outputs": [
        {
          "internalType": "address",
          "name": "",
          "type": "address"
        }
      ],
      "stateMutability": "view",
      "type": "function"
    },
    {
      "inputs": [
        {
          "internalType": "address",
          "name": "",
          "type": "address"
        }
      ],
      "name": "collections",
      "outputs": [
        {
          "internalType": "string",
          "name": "name",
          "type": "string"
        },
        {
          "internalType": "string",
          "name": "description",
          "type": "string"
        },
        {
          "internalType": "string",
          "name": "category",
          "type": "string"
        },
        {
          "internalType": "string",
          "name": "creator",
          "type": "string"
        },
        {
          "internalType": "uint256",
          "name": "royalty",
          "type": "uint256"
        },
        {
          "internalType": "address",
          "name": "creatorAddress",
          "type": "address"
        }
      ],
      "stateMutability": "view",
      "type": "function"
    },
    {
      "inputs": [
        {
          "internalType": "string",
          "name": "_name",
          "type": "string"
        },
        {
          "internalType": "string",
          "name": "_description",
          "type": "string"
        },
        {
          "internalType": "string",
          "name": "_symbol",
          "type": "string"
        },
        {
          "internalType": "string",
          "name": "_category",
          "type": "string"
        },
        {
          "internalType": "string",
          "name": "_creator",
          "type": "string"
        },
        {
          "internalType": "string[]",
          "name": "_tags",
          "type": "string[]"
        },
        {
          "internalType": "string",
          "name": "_baseURI2Set",
          "type": "string"
        },
        {
          "internalType": "uint96",
          "name": "_royalty",
          "type": "uint96"
        }
      ],
      "name": "createCollection",
      "outputs": [
        {
          "internalType": "address",
          "name": "",
          "type": "address"
        }
      ],
      "stateMutability": "nonpayable",
      "type": "function"
    },
    {
      "inputs": [
        {
          "internalType": "string",
          "name": "_category",
          "type": "string"
        }
      ],
      "name": "getCollectionsByCategory",
      "outputs": [
        {
          "internalType": "address[]",
          "name": "",
          "type": "address[]"
        }
      ],
      "stateMutability": "view",
      "type": "function"
    },
    {
      "inputs": [
        {
          "internalType": "address",
          "name": "",
          "type": "address"
        }
      ],
      "name": "isCollection",
      "outputs": [
        {
          "internalType": "bool",
          "name": "",
          "type": "bool"
        }
      ],
      "stateMutability": "view",
      "type": "function"
    },
    {
      "inputs": [],
      "name": "marketAddress",
      "outputs": [
        {
          "internalType": "address",
          "name": "",
          "type": "address"
        }
      ],
      "stateMutability": "view",
      "type": "function"
    },
    {
      "inputs": [
        {
          "internalType": "address",
          "name": "_collectionAddress",
          "type": "address"
        },
        {
          "internalType": "uint256",
          "name": "_supply",
          "type": "uint256"
        }
      ],
      "name": "mintNFTs",
      "outputs": [],
      "stateMutability": "nonpayable",
      "type": "function"
    },
    {
      "inputs": [],
      "name": "owner",
      "outputs": [
        {
          "internalType": "address",
          "name": "",
          "type": "address"
        }
      ],
      "stateMutability": "view",
      "type": "function"
    },
    {
      "inputs": [],
      "name": "renounceOwnership",
      "outputs": [],
      "stateMutability": "nonpayable",
      "type": "function"
    },
    {
      "inputs": [
        {
          "internalType": "address",
          "name": "_collectionAddress",
          "type": "address"
        },
        {
          "internalType": "string",
          "name": "_baseURI2Set",
          "type": "string"
        }
      ],
      "name": "setBaseURI",
      "outputs": [],
      "stateMutability": "nonpayable",
      "type": "function"
    },
    {
      "inputs": [
        {
          "internalType": "address",
          "name": "newOwner",
          "type": "address"
        }
      ],
      "name": "transferOwnership",
      "outputs": [],
      "stateMutability": "nonpayable",
      "type": "function"
    }
  ],
  "bytecode": "0x608060405234801561001057600080fd5b5060405162003bb638038062003bb683398101604081905261003191610138565b338061005857604051631e4fbdf760e01b8152600060048201526024015b60405180910390fd5b610061816100e8565b506001600160a01b0381166100c35760405162461bcd60e51b815260206004820152602260248201527f4e6f207a65726f206164647265737320666f72205f6d61726b65744164647265604482015261737360f01b606482015260840161004f565b600180546001600160a01b0319166001600160a01b0392909216919091179055610168565b600080546001600160a01b038381166001600160a01b0319831681178455604051919092169283917f8be0079c531659141344cd1fd0a4f28419497f9722a3daafe3b4186f6b6457e09190a35050565b60006020828403121561014a57600080fd5b81516001600160a01b038116811461016157600080fd5b9392505050565b613a3e80620001786000396000f3fe60806040523480156200001157600080fd5b5060043610620000b75760003560e01c80638da5cb5b116200007a5780638da5cb5b1462000170578063956236411462000182578063d33691641462000196578063e0158abe14620001ad578063e5f9c37214620001c4578063f2fde38b14620001ea57600080fd5b806343add2e614620000bc5780635fa15ebb14620000f05780636caa97ac1462000127578063715018a6146200014d578063884336511462000159575b600080fd5b620000d3620000cd36600462000d37565b62000201565b604051620000e79695949392919062000db0565b60405180910390f35b620001166200010136600462000d37565b60046020526000908152604090205460ff1681565b6040519015158152602001620000e7565b6200013e6200013836600462000ee8565b6200047f565b604051620000e7919062000f30565b62000157620004c7565b005b620001576200016a36600462000f44565b620004df565b6000546001600160a01b03166200013e565b6001546200013e906001600160a01b031681565b6200013e620001a736600462001059565b62000552565b62000157620001be3660046200119c565b620009f0565b620001db620001d5366004620011c9565b62000a94565b604051620000e7919062001209565b62000157620001fb36600462000d37565b62000b12565b6002602052600090815260409020805481906200021e9062001258565b80601f01602080910402602001604051908101604052809291908181526020018280546200024c9062001258565b80156200029d5780601f1062000271576101008083540402835291602001916200029d565b820191906000526020600020905b8154815290600101906020018083116200027f57829003601f168201915b505050505090806001018054620002b49062001258565b80601f0160208091040260200160405190810160405280929190818152602001828054620002e29062001258565b8015620003335780601f10620003075761010080835404028352916020019162000333565b820191906000526020600020905b8154815290600101906020018083116200031557829003601f168201915b5050505050908060020180546200034a9062001258565b80601f0160208091040260200160405190810160405280929190818152602001828054620003789062001258565b8015620003c95780601f106200039d57610100808354040283529160200191620003c9565b820191906000526020600020905b815481529060010190602001808311620003ab57829003601f168201915b505050505090806003018054620003e09062001258565b80601f01602080910402602001604051908101604052809291908181526020018280546200040e9062001258565b80156200045f5780601f1062000433576101008083540402835291602001916200045f565b820191906000526020600020905b8154815290600101906020018083116200044157829003601f168201915b5050505060058301546006909301549192916001600160a01b0316905086565b81516020818401810180516003825292820191850191909120919052805482908110620004ab57600080fd5b6000918252602090912001546001600160a01b03169150829050565b620004d162000b57565b620004dd600062000b87565b565b620004e962000b57565b6040516331b5b90760e01b815282906001600160a01b038216906331b5b907906200051990859060040162001294565b600060405180830381600087803b1580156200053457600080fd5b505af115801562000549573d6000803e3d6000fd5b50505050505050565b6000620005846040518060400160405280600d81526020016c54657374696e672048656c6c6f60981b81525062000bd7565b6040805160008152602081018083528151902091620005a6918b9101620012a9565b60405160208183030381529060405280519060200120036200061b5760405162461bcd60e51b8152602060048201526024808201527f4465736372697074696f6e2063616e277420626520616e20656d70747920737460448201526372696e6760e01b60648201526084015b60405180910390fd5b60408051600081526020810180835281519020916200063d91899101620012a9565b6040516020818303038152906040528051906020012003620006ac5760405162461bcd60e51b815260206004820152602160248201527f43617465676f72792063616e277420626520616e20656d70747920737472696e6044820152606760f81b606482015260840162000612565b6040805160008152602081018083528151902091620006ce91889101620012a9565b6040516020818303038152906040528051906020012003620007335760405162461bcd60e51b815260206004820181905260248201527f43726561746f722063616e277420626520616e20656d70747920737472696e67604482015260640162000612565b60005b8451811015620007fe576040805160008152602081019182905251902085518690839081106200076a576200076a620012c7565b6020026020010151604051602001620007849190620012a9565b6040516020818303038152906040528051906020012003620007e95760405162461bcd60e51b815260206004820152601d60248201527f546167732063616e277420626520616e20656d70747920737472696e67000000604482015260640162000612565b80620007f581620012dd565b91505062000736565b506001546040516000918b918a91879187916001600160a01b031690620008259062000c3e565b6200083595949392919062001305565b604051809103906000f08015801562000852573d6000803e3d6000fd5b506040805160e0810182528c815260208082018d90528183018b9052606082018a9052608082018990526001600160601b03871660a08301523360c08301526001600160a01b0384166000908152600290915291909120815192935090918190620008be9082620013c3565b5060208201516001820190620008d59082620013c3565b5060408201516002820190620008ec9082620013c3565b5060608201516003820190620009039082620013c3565b50608082015180516200092191600484019160209091019062000c4c565b5060a0820151600582015560c090910151600690910180546001600160a01b0319166001600160a01b0390921691909117905560405160039062000967908990620012a9565b9081526040805160209281900383018120805460018082018355600092835285832090910180546001600160a01b0319166001600160a01b0388169081179091558083526004909552928120805460ff19169093179092557f75432e2e509efcaf947efcc7a5a6b6b3562425b29e9725c7a4a5c652291ac35d9190a29998505050505050505050565b6001600160a01b0382811660009081526002602052604090206006015416331462000a5e5760405162461bcd60e51b815260206004820152601a60248201527f4f6e6c792063726561746f722063616e206d696e74204e465473000000000000604482015260640162000612565b6040516340c10f1960e01b81523360048201526024810182905282906001600160a01b038216906340c10f199060440162000519565b606060038260405162000aa89190620012a9565b908152604080519182900360209081018320805480830285018301909352828452919083018282801562000b0657602002820191906000526020600020905b81546001600160a01b0316815260019091019060200180831162000ae7575b50505050509050919050565b62000b1c62000b57565b6001600160a01b03811662000b49576000604051631e4fbdf760e01b815260040162000612919062000f30565b62000b548162000b87565b50565b6000546001600160a01b03163314620004dd573360405163118cdaa760e01b815260040162000612919062000f30565b600080546001600160a01b038381166001600160a01b0319831681178455604051919092169283917f8be0079c531659141344cd1fd0a4f28419497f9722a3daafe3b4186f6b6457e09190a35050565b62000b548160405160240162000bee919062001294565b60408051601f198184030181529190526020810180516001600160e01b031663104c13eb60e21b17905262000b548160006a636f6e736f6c652e6c6f679050600080835160208501845afa505050565b612579806200149083390190565b82805482825590600052602060002090810192821562000c97579160200282015b8281111562000c97578251829062000c869082620013c3565b509160200191906001019062000c6d565b5062000ca592915062000ca9565b5090565b8082111562000ca557600062000cc0828262000cca565b5060010162000ca9565b50805462000cd89062001258565b6000825580601f1062000ce9575050565b601f01602090049060005260206000209081019062000b5491905b8082111562000ca5576000815560010162000d04565b80356001600160a01b038116811462000d3257600080fd5b919050565b60006020828403121562000d4a57600080fd5b62000d558262000d1a565b9392505050565b60005b8381101562000d7957818101518382015260200162000d5f565b50506000910152565b6000815180845262000d9c81602086016020860162000d5c565b601f01601f19169290920160200192915050565b60c08152600062000dc560c083018962000d82565b828103602084015262000dd9818962000d82565b9050828103604084015262000def818862000d82565b9050828103606084015262000e05818762000d82565b608084019590955250506001600160a01b039190911660a090910152949350505050565b634e487b7160e01b600052604160045260246000fd5b604051601f8201601f191681016001600160401b038111828210171562000e6a5762000e6a62000e29565b604052919050565b600082601f83011262000e8457600080fd5b81356001600160401b0381111562000ea05762000ea062000e29565b62000eb5601f8201601f191660200162000e3f565b81815284602083860101111562000ecb57600080fd5b816020850160208301376000918101602001919091529392505050565b6000806040838503121562000efc57600080fd5b82356001600160401b0381111562000f1357600080fd5b62000f218582860162000e72565b95602094909401359450505050565b6001600160a01b0391909116815260200190565b6000806040838503121562000f5857600080fd5b62000f638362000d1a565b915060208301356001600160401b0381111562000f7f57600080fd5b62000f8d8582860162000e72565b9150509250929050565b600082601f83011262000fa957600080fd5b813560206001600160401b038083111562000fc85762000fc862000e29565b8260051b62000fd983820162000e3f565b938452858101830193838101908886111562000ff457600080fd5b84880192505b858310156200103557823584811115620010145760008081fd5b620010248a87838c010162000e72565b835250918401919084019062000ffa565b98975050505050505050565b80356001600160601b038116811462000d3257600080fd5b600080600080600080600080610100898b0312156200107757600080fd5b88356001600160401b03808211156200108f57600080fd5b6200109d8c838d0162000e72565b995060208b0135915080821115620010b457600080fd5b620010c28c838d0162000e72565b985060408b0135915080821115620010d957600080fd5b620010e78c838d0162000e72565b975060608b0135915080821115620010fe57600080fd5b6200110c8c838d0162000e72565b965060808b01359150808211156200112357600080fd5b620011318c838d0162000e72565b955060a08b01359150808211156200114857600080fd5b620011568c838d0162000f97565b945060c08b01359150808211156200116d57600080fd5b506200117c8b828c0162000e72565b9250506200118d60e08a0162001041565b90509295985092959890939650565b60008060408385031215620011b057600080fd5b620011bb8362000d1a565b946020939093013593505050565b600060208284031215620011dc57600080fd5b81356001600160401b03811115620011f357600080fd5b620012018482850162000e72565b949350505050565b6020808252825182820181905260009190848201906040850190845b818110156200124c5783516001600160a01b03168352928401929184019160010162001225565b50909695505050505050565b600181811c908216806200126d57607f821691505b6020821081036200128e57634e487b7160e01b600052602260045260246000fd5b50919050565b60208152600062000d55602083018462000d82565b60008251620012bd81846020870162000d5c565b9190910192915050565b634e487b7160e01b600052603260045260246000fd5b600060018201620012fe57634e487b7160e01b600052601160045260246000fd5b5060010190565b60a0815260006200131a60a083018862000d82565b82810360208401526200132e818862000d82565b9050828103604084015262001344818762000d82565b6001600160601b0395909516606084015250506001600160a01b03919091166080909101529392505050565b601f821115620013be57600081815260208120601f850160051c81016020861015620013995750805b601f850160051c820191505b81811015620013ba57828155600101620013a5565b5050505b505050565b81516001600160401b03811115620013df57620013df62000e29565b620013f781620013f0845462001258565b8462001370565b602080601f8311600181146200142f5760008415620014165750858301515b600019600386901b1c1916600185901b178555620013ba565b600085815260208120601f198616915b8281101562001460578886015182559484019460019091019084016200143f565b50858210156200147f5787850151600019600388901b60f8161c191681555b5050505050600190811b0190555056fe60c06040526005608090815264173539b7b760d91b60a052600e9062000026908262000492565b506005600f55620186a06010553480156200004057600080fd5b506040516200257938038062002579833981016040819052620000639162000615565b338585600262000074838262000492565b50600362000083828262000492565b5050506001600160a01b038116620000b657604051631e4fbdf760e01b8152600060048201526024015b60405180910390fd5b620000c1816200039b565b506001600160a01b038116620001255760405162461bcd60e51b815260206004820152602260248201527f4e6f207a65726f206164647265737320666f72205f6d61726b65744164647265604482015261737360f01b6064820152608401620000ad565b60408051600081526020810180835281519020916200014791889101620006eb565b6040516020818303038152906040528051906020012003620001ac5760405162461bcd60e51b815260206004820152601960248201527f546f6b656e204e616d652063616e277420626520656d707479000000000000006044820152606401620000ad565b6040805160008152602081018083528151902091620001ce91879101620006eb565b6040516020818303038152906040528051906020012003620002335760405162461bcd60e51b815260206004820152601b60248201527f546f6b656e2053796d626f6c2063616e277420626520656d70747900000000006044820152606401620000ad565b60408051600081526020810180835281519020916200025591869101620006eb565b6040516020818303038152906040528051906020012003620002ba5760405162461bcd60e51b815260206004820152601660248201527f426173655552492063616e277420626520656d707479000000000000000000006044820152606401620000ad565b6000826001600160601b0316118015620002df57506103e8826001600160601b031611155b6200033c5760405162461bcd60e51b815260206004820152602660248201527f526f79616c74792073686f756c6420626520696e20612072616e6765206f662060448201526528303b31305d60d01b6064820152608401620000ad565b600d6200034a848262000492565b50601280546001600160a01b031916331790556001600160601b03919091166001600160a01b039091166c01000000000000000000000000026001600160601b031916176011555062000709915050565b600c80546001600160a01b038381166001600160a01b0319831681179093556040519116919082907f8be0079c531659141344cd1fd0a4f28419497f9722a3daafe3b4186f6b6457e090600090a35050565b634e487b7160e01b600052604160045260246000fd5b600181811c908216806200041857607f821691505b6020821081036200043957634e487b7160e01b600052602260045260246000fd5b50919050565b601f8211156200048d57600081815260208120601f850160051c81016020861015620004685750805b601f850160051c820191505b81811015620004895782815560010162000474565b5050505b505050565b81516001600160401b03811115620004ae57620004ae620003ed565b620004c681620004bf845462000403565b846200043f565b602080601f831160018114620004fe5760008415620004e55750858301515b600019600386901b1c1916600185901b17855562000489565b600085815260208120601f198616915b828110156200052f578886015182559484019460019091019084016200050e565b50858210156200054e5787850151600019600388901b60f8161c191681555b5050505050600190811b01905550565b60005b838110156200057b57818101518382015260200162000561565b50506000910152565b600082601f8301126200059657600080fd5b81516001600160401b0380821115620005b357620005b3620003ed565b604051601f8301601f19908116603f01168101908282118183101715620005de57620005de620003ed565b81604052838152866020858801011115620005f857600080fd5b6200060b8460208301602089016200055e565b9695505050505050565b600080600080600060a086880312156200062e57600080fd5b85516001600160401b03808211156200064657600080fd5b6200065489838a0162000584565b965060208801519150808211156200066b57600080fd5b6200067989838a0162000584565b955060408801519150808211156200069057600080fd5b506200069f8882890162000584565b606088015190945090506001600160601b0381168114620006bf57600080fd5b60808701519092506001600160a01b0381168114620006dd57600080fd5b809150509295509295909350565b60008251620006ff8184602087016200055e565b9190910192915050565b611e6080620007196000396000f3fe60806040526004361061016c5760003560e01c80634f6ccce7116100cc578063a22cb4651161007a578063a22cb46514610402578063b88d4fde14610422578063c668286214610442578063c87b56dd14610457578063d5abeb0114610477578063e985e9c51461048d578063f2fde38b146104ad57600080fd5b80634f6ccce7146103455780636352211e146103655780636c0360eb1461038557806370a082311461039a578063715018a6146103ba5780638da5cb5b146103cf57806395d89b41146103ed57600080fd5b806323b872dd1161012957806323b872dd1461024c57806329ee566c1461026c5780632a55205a146102a45780632f745c59146102d257806331b5b907146102f257806340c10f191461031257806342842e0e1461032557600080fd5b806301ffc9a71461017157806306fdde03146101a6578063081812fc146101c8578063095ea7b3146101f557806318160ddd14610217578063239c70ae14610236575b600080fd5b34801561017d57600080fd5b5061019161018c3660046117f1565b6104cd565b60405190151581526020015b60405180910390f35b3480156101b257600080fd5b506101bb6104de565b60405161019d919061185e565b3480156101d457600080fd5b506101e86101e3366004611871565b610570565b60405161019d919061188a565b34801561020157600080fd5b506102156102103660046118ba565b610599565b005b34801561022357600080fd5b50600a545b60405190815260200161019d565b34801561024257600080fd5b50610228600f5481565b34801561025857600080fd5b506102156102673660046118e4565b6105a8565b34801561027857600080fd5b5060115461028c906001600160601b031681565b6040516001600160601b03909116815260200161019d565b3480156102b057600080fd5b506102c46102bf366004611920565b61063c565b60405161019d929190611942565b3480156102de57600080fd5b506102286102ed3660046118ba565b6106c1565b3480156102fe57600080fd5b5061021561030d3660046119e7565b610718565b6102156103203660046118ba565b610724565b34801561033157600080fd5b506102156103403660046118e4565b610976565b34801561035157600080fd5b50610228610360366004611871565b610991565b34801561037157600080fd5b506101e8610380366004611871565b6109e5565b34801561039157600080fd5b506101bb6109f0565b3480156103a657600080fd5b506102286103b5366004611a30565b610a7e565b3480156103c657600080fd5b50610215610ac6565b3480156103db57600080fd5b50600c546001600160a01b03166101e8565b3480156103f957600080fd5b506101bb610ada565b34801561040e57600080fd5b5061021561041d366004611a4b565b610ae9565b34801561042e57600080fd5b5061021561043d366004611a87565b610af4565b34801561044e57600080fd5b506101bb610b98565b34801561046357600080fd5b506101bb610472366004611871565b610ba5565b34801561048357600080fd5b5061022860105481565b34801561049957600080fd5b506101916104a8366004611b03565b610c06565b3480156104b957600080fd5b506102156104c8366004611a30565b610c34565b60006104d882610c72565b92915050565b6060600280546104ed90611b36565b80601f016020809104026020016040519081016040528092919081815260200182805461051990611b36565b80156105665780601f1061053b57610100808354040283529160200191610566565b820191906000526020600020905b81548152906001019060200180831161054957829003601f168201915b5050505050905090565b600061057b82610c7d565b506000828152600660205260409020546001600160a01b03166104d8565b6105a4828233610cb6565b5050565b6001600160a01b0382166105db576000604051633250574960e11b81526004016105d2919061188a565b60405180910390fd5b60006105e8838333610cc3565b9050836001600160a01b0316816001600160a01b031614610636576040516364283d7b60e01b81526001600160a01b03808616600483015260248201849052821660448201526064016105d2565b50505050565b600082815260016020526040812080548291906001600160a01b03811690600160a01b90046001600160601b0316816106905750506000546001600160a01b03811690600160a01b90046001600160601b03165b60006127106106a86001600160601b03841689611b86565b6106b29190611b9d565b92989297509195505050505050565b60006106cc83610a7e565b82106106ef57828260405163295f44f760e21b81526004016105d2929190611942565b506001600160a01b03919091166000908152600860209081526040808320938352929052205490565b600d6105a48282611c05565b600061072f600a5490565b6012549091506001600160a01b031633146107a25760405162461bcd60e51b815260206004820152602d60248201527f4d696e74696e672063616e2068617070656e206f6e6c7920627920604661637460448201526c1bdc9e580818dbdb9d1c9858dd609a1b60648201526084016105d2565b600082116108185760405162461bcd60e51b815260206004820152603f60248201527f416e7920616d6f756e74206f6620746f6b656e732073686f756c64206265206d60448201527f696e746564207768656e2063616c6c696e67207468652066756e6374696f6e0060648201526084016105d2565b600f548211156108895760405162461bcd60e51b815260206004820152603660248201527f416d6f756e742073686f756c646e277420657863656564206d6178696d756d2060448201527536b4b73a1030b6b7bab73a103634b6b4ba30ba34b7b760511b60648201526084016105d2565b6010546108968383611cc5565b111561090a5760405162461bcd60e51b815260206004820152603a60248201527f526573756c74696e6720737570706c79206f6620746f6b656e732073686f756c60448201527f646e277420657863656564206d6178696d756d20737570706c7900000000000060648201526084016105d2565b60015b82811161093957610927846109228385611cc5565b610cd8565b8061093181611cd8565b91505061090d565b5060115461095a908490600160601b90046001600160a01b03166001610cf2565b6011546109719084906001600160601b0316610d88565b505050565b61097183838360405180602001604052806000815250610af4565b600061099c600a5490565b82106109c05760008260405163295f44f760e21b81526004016105d2929190611942565b600a82815481106109d3576109d3611cf1565b90600052602060002001549050919050565b60006104d882610c7d565b600d80546109fd90611b36565b80601f0160208091040260200160405190810160405280929190818152602001828054610a2990611b36565b8015610a765780601f10610a4b57610100808354040283529160200191610a76565b820191906000526020600020905b815481529060010190602001808311610a5957829003601f168201915b505050505081565b60006001600160a01b038216610aaa5760006040516322718ad960e21b81526004016105d2919061188a565b506001600160a01b031660009081526005602052604090205490565b610ace610e2b565b610ad86000610e58565b565b6060600380546104ed90611b36565b6105a4338383610cf2565b601154600160601b90046001600160a01b03163314610b6c5760405162461bcd60e51b815260206004820152602e60248201527f4f6e6c7920604d61726b65746020636f6e74726163742063616e206465616c2060448201526d77697468207472616e736665727360901b60648201526084016105d2565b610b7884848484610eaa565b601154610636908490600160601b90046001600160a01b03166001610cf2565b600e80546109fd90611b36565b60606000610bb1610ec2565b90506000815111610bd15760405180602001604052806000815250610bff565b80610bdb84610f48565b600e604051602001610bef93929190611d07565b6040516020818303038152906040525b9392505050565b6001600160a01b03918216600090815260076020908152604080832093909416825291909152205460ff1690565b610c3c610e2b565b6001600160a01b038116610c66576000604051631e4fbdf760e01b81526004016105d2919061188a565b610c6f81610e58565b50565b60006104d882610fdb565b6000818152600460205260408120546001600160a01b0316806104d857604051637e27328960e01b8152600481018490526024016105d2565b6109718383836001611000565b6000610cd08484846110fd565b949350505050565b6105a48282604051806020016040528060008152506111ca565b6001600160a01b038216610d1b5781604051630b61174360e31b81526004016105d2919061188a565b6001600160a01b03838116600081815260076020908152604080832094871680845294825291829020805460ff191686151590811790915591519182527f17307eab39ab6107e8899845ad3d59bd9653f200f220920489ca2b5937696c31910160405180910390a3505050565b6127106001600160601b038216811015610dc757604051636f483d0960e01b81526001600160601b0383166004820152602481018290526044016105d2565b6001600160a01b038316610df1576000604051635b6cc80560e11b81526004016105d2919061188a565b50604080518082019091526001600160a01b039092168083526001600160601b039091166020909201829052600160a01b90910217600055565b600c546001600160a01b03163314610ad8573360405163118cdaa760e01b81526004016105d2919061188a565b600c80546001600160a01b038381166001600160a01b0319831681179093556040519116919082907f8be0079c531659141344cd1fd0a4f28419497f9722a3daafe3b4186f6b6457e090600090a35050565b610eb58484846105a8565b61063633858585856111de565b6012546060906001600160a01b03163314610f3b5760405162461bcd60e51b815260206004820152603360248201527f546869732066756e6374696f6e2063616e206f6e6c792063616c6c65642062796044820152720818119858dd1bdc9e580818dbdb9d1c9858dd606a1b60648201526084016105d2565b600d80546104ed90611b36565b60606000610f55836112f7565b600101905060008167ffffffffffffffff811115610f7557610f7561195b565b6040519080825280601f01601f191660200182016040528015610f9f576020820181803683370190505b5090508181016020015b600019016f181899199a1a9b1b9c1cb0b131b232b360811b600a86061a8153600a8504945084610fa957509392505050565b60006001600160e01b0319821663780e9d6360e01b14806104d857506104d8826113cf565b808061101457506001600160a01b03821615155b156110cd57600061102484610c7d565b90506001600160a01b038316158015906110505750826001600160a01b0316816001600160a01b031614155b801561106357506110618184610c06565b155b15611083578260405163a9fbf51f60e01b81526004016105d2919061188a565b81156110cb5783856001600160a01b0316826001600160a01b03167f8c5be1e5ebec7d5bd14f71427d1e84f3dd0314c0f7b2291e5b200ac8c7c3b92560405160405180910390a45b505b5050600090815260066020526040902080546001600160a01b0319166001600160a01b0392909216919091179055565b60008061110b85858561140f565b90506001600160a01b0381166111685761116384600a80546000838152600b60205260408120829055600182018355919091527fc65a7bb8d6351c1cf70c95a316cc6a92839c986682d98bc35f958f4883f9d2a80155565b61118b565b846001600160a01b0316816001600160a01b03161461118b5761118b8185611508565b6001600160a01b0385166111a7576111a284611589565b610cd0565b846001600160a01b0316816001600160a01b031614610cd057610cd08585611638565b6111d48383611688565b6109713360008585855b6001600160a01b0383163b156112f057604051630a85bd0160e11b81526001600160a01b0384169063150b7a0290611220908890889087908790600401611da7565b6020604051808303816000875af192505050801561125b575060408051601f3d908101601f1916820190925261125891810190611de4565b60015b6112bb573d808015611289576040519150601f19603f3d011682016040523d82523d6000602084013e61128e565b606091505b5080516000036112b35783604051633250574960e11b81526004016105d2919061188a565b805181602001fd5b6001600160e01b03198116630a85bd0160e11b146112ee5783604051633250574960e11b81526004016105d2919061188a565b505b5050505050565b60008072184f03e93ff9f4daa797ed6e38ed64bf6a1f0160401b83106113365772184f03e93ff9f4daa797ed6e38ed64bf6a1f0160401b830492506040015b6d04ee2d6d415b85acef81000000008310611362576d04ee2d6d415b85acef8100000000830492506020015b662386f26fc10000831061138057662386f26fc10000830492506010015b6305f5e1008310611398576305f5e100830492506008015b61271083106113ac57612710830492506004015b606483106113be576064830492506002015b600a83106104d85760010192915050565b60006001600160e01b031982166380ac58cd60e01b148061140057506001600160e01b03198216635b5e139f60e01b145b806104d857506104d8826116ed565b6000828152600460205260408120546001600160a01b039081169083161561143c5761143c818486611722565b6001600160a01b0381161561147a57611459600085600080611000565b6001600160a01b038116600090815260056020526040902080546000190190555b6001600160a01b038516156114a9576001600160a01b0385166000908152600560205260409020805460010190555b60008481526004602052604080822080546001600160a01b0319166001600160a01b0389811691821790925591518793918516917fddf252ad1be2c89b69c2b068fc378daa952ba7f163c4a11628f55a4df523b3ef91a4949350505050565b600061151383610a7e565b6000838152600960209081526040808320546001600160a01b038816845260089092529091209192509081831461156a57600083815260208281526040808320548584528184208190558352600990915290208290555b6000938452600960209081526040808620869055938552525081205550565b600a5460009061159b90600190611e01565b6000838152600b6020526040812054600a80549394509092849081106115c3576115c3611cf1565b9060005260206000200154905080600a83815481106115e4576115e4611cf1565b6000918252602080832090910192909255828152600b9091526040808220849055858252812055600a80548061161c5761161c611e14565b6001900381819060005260206000200160009055905550505050565b6000600161164584610a7e565b61164f9190611e01565b6001600160a01b039093166000908152600860209081526040808320868452825280832085905593825260099052919091209190915550565b6001600160a01b0382166116b2576000604051633250574960e11b81526004016105d2919061188a565b60006116c083836000610cc3565b90506001600160a01b038116156109715760006040516339e3563760e11b81526004016105d2919061188a565b60006001600160e01b0319821663152a902d60e11b14806104d857506301ffc9a760e01b6001600160e01b03198316146104d8565b61172d838383611778565b610971576001600160a01b03831661175b57604051637e27328960e01b8152600481018290526024016105d2565b818160405163177e802f60e01b81526004016105d2929190611942565b60006001600160a01b03831615801590610cd05750826001600160a01b0316846001600160a01b031614806117b257506117b28484610c06565b80610cd05750506000908152600660205260409020546001600160a01b03908116911614919050565b6001600160e01b031981168114610c6f57600080fd5b60006020828403121561180357600080fd5b8135610bff816117db565b60005b83811015611829578181015183820152602001611811565b50506000910152565b6000815180845261184a81602086016020860161180e565b601f01601f19169290920160200192915050565b602081526000610bff6020830184611832565b60006020828403121561188357600080fd5b5035919050565b6001600160a01b0391909116815260200190565b80356001600160a01b03811681146118b557600080fd5b919050565b600080604083850312156118cd57600080fd5b6118d68361189e565b946020939093013593505050565b6000806000606084860312156118f957600080fd5b6119028461189e565b92506119106020850161189e565b9150604084013590509250925092565b6000806040838503121561193357600080fd5b50508035926020909101359150565b6001600160a01b03929092168252602082015260400190565b634e487b7160e01b600052604160045260246000fd5b600067ffffffffffffffff8084111561198c5761198c61195b565b604051601f8501601f19908116603f011681019082821181831017156119b4576119b461195b565b816040528093508581528686860111156119cd57600080fd5b858560208301376000602087830101525050509392505050565b6000602082840312156119f957600080fd5b813567ffffffffffffffff811115611a1057600080fd5b8201601f81018413611a2157600080fd5b610cd084823560208401611971565b600060208284031215611a4257600080fd5b610bff8261189e565b60008060408385031215611a5e57600080fd5b611a678361189e565b915060208301358015158114611a7c57600080fd5b809150509250929050565b60008060008060808587031215611a9d57600080fd5b611aa68561189e565b9350611ab46020860161189e565b925060408501359150606085013567ffffffffffffffff811115611ad757600080fd5b8501601f81018713611ae857600080fd5b611af787823560208401611971565b91505092959194509250565b60008060408385031215611b1657600080fd5b611b1f8361189e565b9150611b2d6020840161189e565b90509250929050565b600181811c90821680611b4a57607f821691505b602082108103611b6a57634e487b7160e01b600052602260045260246000fd5b50919050565b634e487b7160e01b600052601160045260246000fd5b80820281158282048414176104d8576104d8611b70565b600082611bba57634e487b7160e01b600052601260045260246000fd5b500490565b601f82111561097157600081815260208120601f850160051c81016020861015611be65750805b601f850160051c820191505b818110156112ee57828155600101611bf2565b815167ffffffffffffffff811115611c1f57611c1f61195b565b611c3381611c2d8454611b36565b84611bbf565b602080601f831160018114611c685760008415611c505750858301515b600019600386901b1c1916600185901b1785556112ee565b600085815260208120601f198616915b82811015611c9757888601518255948401946001909101908401611c78565b5085821015611cb55787850151600019600388901b60f8161c191681555b5050505050600190811b01905550565b808201808211156104d8576104d8611b70565b600060018201611cea57611cea611b70565b5060010190565b634e487b7160e01b600052603260045260246000fd5b600084516020611d1a8285838a0161180e565b855191840191611d2d8184848a0161180e565b8554920191600090611d3e81611b36565b60018281168015611d565760018114611d6b57611d97565b60ff1984168752821515830287019450611d97565b896000528560002060005b84811015611d8f57815489820152908301908701611d76565b505082870194505b50929a9950505050505050505050565b6001600160a01b0385811682528416602082015260408101839052608060608201819052600090611dda90830184611832565b9695505050505050565b600060208284031215611df657600080fd5b8151610bff816117db565b818103818111156104d8576104d8611b70565b634e487b7160e01b600052603160045260246000fdfea26469706673582212208bf1d7d15ed8d1747b932254fb689bc7f6c8d9c91d036d480d83887ea0bedf7e64736f6c63430008140033a26469706673582212203ec4c1002535f858d14eddf342b992c01185ac50324a1c223f77a02b7c21fdaf64736f6c63430008140033",
  "linkReferences": {},
  "deployedLinkReferences": {}
}