{
  "_format": "hh-sol-artifact-1",
  "contractName": "NFTMarketplace",
  "sourceName": "contracts/NFTMarketplace.sol",
  "abi": [
    {
      "inputs": [],
      "stateMutability": "nonpayable",
      "type": "constructor"
    },
    {
      "inputs": [
        {
          "internalType": "address",
          "name": "owner",
          "type": "address"
        }
      ],
      "name": "OwnableInvalidOwner",
      "type": "error"
    },
    {
      "inputs": [
        {
          "internalType": "address",
          "name": "account",
          "type": "address"
        }
      ],
      "name": "OwnableUnauthorizedAccount",
      "type": "error"
    },
    {
      "inputs": [],
      "name": "ReentrancyGuardReentrantCall",
      "type": "error"
    },
    {
      "anonymous": false,
      "inputs": [
        {
          "indexed": true,
          "internalType": "address",
          "name": "collectionAddress",
          "type": "address"
        }
      ],
      "name": "AddressRecovered",
      "type": "event"
    },
    {
      "anonymous": false,
      "inputs": [
        {
          "indexed": true,
          "internalType": "address",
          "name": "isOwner",
          "type": "address"
        },
        {
          "indexed": true,
          "internalType": "address",
          "name": "owner",
          "type": "address"
        }
      ],
      "name": "Debug",
      "type": "event"
    },
    {
      "anonymous": false,
      "inputs": [
        {
          "indexed": true,
          "internalType": "address",
          "name": "previousOwner",
          "type": "address"
        },
        {
          "indexed": true,
          "internalType": "address",
          "name": "newOwner",
          "type": "address"
        }
      ],
      "name": "OwnershipTransferred",
      "type": "event"
    },
    {
      "inputs": [
        {
          "internalType": "address",
          "name": "_collectionAddress",
          "type": "address"
        },
        {
          "internalType": "uint256",
          "name": "_tokenID",
          "type": "uint256"
        },
        {
          "internalType": "uint256",
          "name": "bidAmount",
          "type": "uint256"
        }
      ],
      "name": "bidToken",
      "outputs": [],
      "stateMutability": "nonpayable",
      "type": "function"
    },
    {
      "inputs": [
        {
          "internalType": "address",
          "name": "_collectionAddress",
          "type": "address"
        },
        {
          "internalType": "uint256",
          "name": "_tokenID",
          "type": "uint256"
        }
      ],
      "name": "buyToken",
      "outputs": [],
      "stateMutability": "payable",
      "type": "function"
    },
    {
      "inputs": [
        {
          "internalType": "address",
          "name": "newOwner",
          "type": "address"
        }
      ],
      "name": "changeOwner",
      "outputs": [],
      "stateMutability": "nonpayable",
      "type": "function"
    },
    {
      "inputs": [
        {
          "internalType": "address",
          "name": "_collectionAddress",
          "type": "address"
        },
        {
          "internalType": "uint256",
          "name": "_tokenID",
          "type": "uint256"
        }
      ],
      "name": "endBiding",
      "outputs": [],
      "stateMutability": "payable",
      "type": "function"
    },
    {
      "inputs": [
        {
          "internalType": "address",
          "name": "_collectionAddress",
          "type": "address"
        },
        {
          "internalType": "uint256",
          "name": "_tokenID",
          "type": "uint256"
        }
      ],
      "name": "endRental",
      "outputs": [],
      "stateMutability": "nonpayable",
      "type": "function"
    },
    {
      "inputs": [],
      "name": "factoryAddress",
      "outputs": [
        {
          "internalType": "address",
          "name": "",
          "type": "address"
        }
      ],
      "stateMutability": "view",
      "type": "function"
    },
    {
      "inputs": [
        {
          "internalType": "address",
          "name": "",
          "type": "address"
        },
        {
          "internalType": "uint256",
          "name": "",
          "type": "uint256"
        }
      ],
      "name": "isListing",
      "outputs": [
        {
          "internalType": "bool",
          "name": "",
          "type": "bool"
        }
      ],
      "stateMutability": "view",
      "type": "function"
    },
    {
      "inputs": [
        {
          "internalType": "address",
          "name": "_collectionAddress",
          "type": "address"
        },
        {
          "internalType": "uint256",
          "name": "_tokenID",
          "type": "uint256"
        },
        {
          "internalType": "uint256",
          "name": "_price",
          "type": "uint256"
        },
        {
          "internalType": "uint256",
          "name": "_listingType",
          "type": "uint256"
        }
      ],
      "name": "listToken",
      "outputs": [],
      "stateMutability": "nonpayable",
      "type": "function"
    },
    {
      "inputs": [
        {
          "internalType": "address",
          "name": "",
          "type": "address"
        },
        {
          "internalType": "uint256",
          "name": "",
          "type": "uint256"
        }
      ],
      "name": "listedTokens",
      "outputs": [
        {
          "internalType": "address",
          "name": "owner",
          "type": "address"
        },
        {
          "internalType": "uint256",
          "name": "price",
          "type": "uint256"
        },
        {
          "internalType": "uint256",
          "name": "listingType",
          "type": "uint256"
        },
        {
          "internalType": "uint256",
          "name": "listingStatus",
          "type": "uint256"
        }
      ],
      "stateMutability": "view",
      "type": "function"
    },
    {
      "inputs": [],
      "name": "owner",
      "outputs": [
        {
          "internalType": "address",
          "name": "",
          "type": "address"
        }
      ],
      "stateMutability": "view",
      "type": "function"
    },
    {
      "inputs": [
        {
          "internalType": "bytes32",
          "name": "orderDataHash",
          "type": "bytes32"
        },
        {
          "internalType": "bytes",
          "name": "signature",
          "type": "bytes"
        }
      ],
      "name": "recoverAddress",
      "outputs": [
        {
          "internalType": "address",
          "name": "",
          "type": "address"
        }
      ],
      "stateMutability": "nonpayable",
      "type": "function"
    },
    {
      "inputs": [],
      "name": "renounceOwnership",
      "outputs": [],
      "stateMutability": "nonpayable",
      "type": "function"
    },
    {
      "inputs": [
        {
          "internalType": "address",
          "name": "_collectionAddress",
          "type": "address"
        },
        {
          "internalType": "uint256",
          "name": "_tokenID",
          "type": "uint256"
        }
      ],
      "name": "rentToken",
      "outputs": [],
      "stateMutability": "payable",
      "type": "function"
    },
    {
      "inputs": [
        {
          "internalType": "address",
          "name": "_factoryAddress",
          "type": "address"
        }
      ],
      "name": "setFactory",
      "outputs": [],
      "stateMutability": "nonpayable",
      "type": "function"
    },
    {
      "inputs": [
        {
          "internalType": "address",
          "name": "newOwner",
          "type": "address"
        }
      ],
      "name": "transferOwnership",
      "outputs": [],
      "stateMutability": "nonpayable",
      "type": "function"
    },
    {
      "inputs": [
        {
          "internalType": "address",
          "name": "_collectionAddress",
          "type": "address"
        },
        {
          "internalType": "uint256",
          "name": "_tokenID",
          "type": "uint256"
        },
        {
          "internalType": "address",
          "name": "_buyer",
          "type": "address"
        },
        {
          "internalType": "bytes32",
          "name": "_orderData",
          "type": "bytes32"
        },
        {
          "internalType": "bytes",
          "name": "_signature",
          "type": "bytes"
        }
      ],
      "name": "transferTokenForOffer",
      "outputs": [],
      "stateMutability": "nonpayable",
      "type": "function"
    },
    {
      "inputs": [
        {
          "internalType": "address",
          "name": "_collectionAddress",
          "type": "address"
        },
        {
          "internalType": "uint256",
          "name": "_tokenID",
          "type": "uint256"
        }
      ],
      "name": "unlistToken",
      "outputs": [],
      "stateMutability": "nonpayable",
      "type": "function"
    }
  ],
  "bytecode": "0x608060405234801561001057600080fd5b50338061003757604051631e4fbdf760e01b81526000600482015260240160405180910390fd5b6100408161004a565b506001805561009a565b600080546001600160a01b038381166001600160a01b0319831681178455604051919092169283917f8be0079c531659141344cd1fd0a4f28419497f9722a3daafe3b4186f6b6457e09190a35050565b611fc4806100a96000396000f3fe6080604052600436106100de5760003560e01c8063966dae0e11610085578063966dae0e146101c3578063a6f9dae1146101e3578063b43d901d14610203578063c655d7aa14610223578063d2c3b71014610243578063d3398fb5146102c3578063d9ddca251461030e578063f2fde38b1461032e578063f3a469b41461034e57600080fd5b806303414463146100e35780631157decb146100f85780631791154f146101185780635bb478081461013857806368f8fc1014610158578063715018a61461016b578063732c5e0f146101805780638da5cb5b14610193575b600080fd5b6100f66100f1366004611bef565b61036e565b005b34801561010457600080fd5b506100f6610113366004611bef565b6107b5565b34801561012457600080fd5b506100f6610133366004611bef565b610a29565b34801561014457600080fd5b506100f6610153366004611c1b565b610af4565b6100f6610166366004611bef565b610b1e565b34801561017757600080fd5b506100f6610f40565b6100f661018e366004611bef565b610f54565b34801561019f57600080fd5b506000546001600160a01b03165b6040516101ba9190611c3f565b60405180910390f35b3480156101cf57600080fd5b506002546101ad906001600160a01b031681565b3480156101ef57600080fd5b506100f66101fe366004611c1b565b611209565b34801561020f57600080fd5b506100f661021e366004611c53565b61127f565b34801561022f57600080fd5b506101ad61023e366004611ca4565b6114f1565b34801561024f57600080fd5b5061029961025e366004611bef565b6003602081815260009384526040808520909152918352912080546001820154600283015492909301546001600160a01b0390911692919084565b604080516001600160a01b03909516855260208501939093529183015260608201526080016101ba565b3480156102cf57600080fd5b506102fe6102de366004611bef565b600460209081526000928352604080842090915290825290205460ff1681565b60405190151581526020016101ba565b34801561031a57600080fd5b506100f6610329366004611d5f565b6115ea565b34801561033a57600080fd5b506100f6610349366004611c1b565b61186f565b34801561035a57600080fd5b506100f6610369366004611e09565b6118a1565b6002546001600160a01b031661039f5760405162461bcd60e51b815260040161039690611e3e565b60405180910390fd5b6103a7611ac4565b6001600160a01b038216600090815260046020908152604080832084845290915290205460ff1615156001146103ef5760405162461bcd60e51b815260040161039690611e6a565b6001600160a01b03821660009081526003602090815260408083208484529091529020600201546001146104655760405162461bcd60e51b815260206004820152601a60248201527f746f6b656e2069736e2774206c697374656420746f2072656e740000000000006044820152606401610396565b6001600160a01b03821660009081526003602081815260408084208585529091529091200154156104d85760405162461bcd60e51b815260206004820152601a60248201527f746f6b656e2072656e74616c206e6f7420617661696c61626c650000000000006044820152606401610396565b6001600160a01b038216600090815260036020908152604080832084845290915290206001015434101561051e5760405162461bcd60e51b815260040161039690611e9a565b6040516331a9108f60e11b8152600481018290526000906001600160a01b03841690636352211e90602401602060405180830381865afa158015610566573d6000803e3d6000fd5b505050506040513d601f19601f8201168201806040525081019061058a9190611ecd565b6001600160a01b038416600081815260036020908152604080832087845290915280822060010154905163152a902d60e11b815260048101879052602481019190915292935091829190632a55205a906044016040805180830381865afa1580156105f9573d6000803e3d6000fd5b505050506040513d601f19601f8201168201806040525081019061061d9190611eea565b604051635c46a7ef60e11b815291935091506001600160a01b0386169063b88d4fde9061065290869033908990600401611f18565b600060405180830381600087803b15801561066c57600080fd5b505af1158015610680573d6000803e3d6000fd5b50505050826001600160a01b0316826001600160a01b031603610704576040516001600160a01b038416903480156108fc02916000818181858888f193505050501580156106d2573d6000803e3d6000fd5b5050506001600160a01b03831660009081526003602081815260408084208685529091529091206002910155506107a8565b6040516001600160a01b0383169082156108fc029083906000818181858888f1935050505015801561073a573d6000803e3d6000fd5b506001600160a01b0383166108fc6107528334611f4b565b6040518115909202916000818181858888f1935050505015801561077a573d6000803e3d6000fd5b5050506001600160a01b03831660009081526003602081815260408084208685529091529091206002910155505b6107b160018055565b5050565b6002546001600160a01b03166107dd5760405162461bcd60e51b815260040161039690611e3e565b6107e5611aee565b6001600160a01b038216600090815260046020908152604080832084845290915290205460ff16151560011461082d5760405162461bcd60e51b815260040161039690611e6a565b6001600160a01b03821660009081526003602090815260408083208484529091529020600201546001146108a35760405162461bcd60e51b815260206004820152601d60248201527f746f6b656e2069736e2774206c697374656420666f722072656e74616c0000006044820152606401610396565b6001600160a01b0382166000908152600360208181526040808420858552909152909120015460021461090d5760405162461bcd60e51b81526020600482015260126024820152711d1bdad95b881a5cdb89dd081c995b9d195960721b6044820152606401610396565b6040516331a9108f60e11b8152600481018290526000906001600160a01b03841690636352211e90602401602060405180830381865afa158015610955573d6000803e3d6000fd5b505050506040513d601f19601f820116820180604052508101906109799190611ecd565b6001600160a01b03808516600081815260036020908152604080832088845290915290819020549051635c46a7ef60e11b8152939450909263b88d4fde926109ca9286929116908790600401611f18565b600060405180830381600087803b1580156109e457600080fd5b505af11580156109f8573d6000803e3d6000fd5b505050506001600160a01b039290921660009081526003602081815260408084209484529390529181209091015550565b6002546001600160a01b0316610a515760405162461bcd60e51b815260040161039690611e3e565b610a59611aee565b6001600160a01b03918216600081815260046020908152604080832085845282528083208054600160ff19909116811790915581516080810183523381528084018581529585526003808552838620888752808652848720600281018054968501968752606085018681529a9098529552905184546001600160a01b0319169816979097178355935193820193909355915190559051910155565b610afc611aee565b600280546001600160a01b0319166001600160a01b0392909216919091179055565b6002546001600160a01b0316610b465760405162461bcd60e51b815260040161039690611e3e565b610b4e611ac4565b6001600160a01b038216600090815260046020908152604080832084845290915290205460ff161515600114610b965760405162461bcd60e51b815260040161039690611e6a565b6001600160a01b038216600090815260036020908152604080832084845290915290206002015415610c065760405162461bcd60e51b8152602060048201526019602482015278746f6b656e2069736e2774206c697374656420746f2062757960381b6044820152606401610396565b6001600160a01b0382166000908152600360208181526040808420858552909152909120015415610c795760405162461bcd60e51b815260206004820152601c60248201527f746f6b656e207075726368617365206e6f7420617661696c61626c65000000006044820152606401610396565b6001600160a01b0382166000908152600360209081526040808320848452909152902060010154341015610cbf5760405162461bcd60e51b815260040161039690611e9a565b6040516331a9108f60e11b8152600481018290526000906001600160a01b03841690636352211e90602401602060405180830381865afa158015610d07573d6000803e3d6000fd5b505050506040513d601f19601f82011682018060405250810190610d2b9190611ecd565b6001600160a01b038416600081815260036020908152604080832087845290915280822060010154905163152a902d60e11b815260048101879052602481019190915292935091829190632a55205a906044015b6040805180830381865afa158015610d9b573d6000803e3d6000fd5b505050506040513d601f19601f82011682018060405250810190610dbf9190611eea565b604051635c46a7ef60e11b815291935091506001600160a01b0386169063b88d4fde90610df490869033908990600401611f18565b600060405180830381600087803b158015610e0e57600080fd5b505af1158015610e22573d6000803e3d6000fd5b50505050826001600160a01b0316826001600160a01b031603610e7d576040516001600160a01b038416903480156108fc02916000818181858888f19350505050158015610e74573d6000803e3d6000fd5b505050506107a8565b6040516001600160a01b0383169082156108fc029083906000818181858888f19350505050158015610eb3573d6000803e3d6000fd5b506001600160a01b0383166108fc610ecb8334611f4b565b6040518115909202916000818181858888f19350505050158015610ef3573d6000803e3d6000fd5b505050506001600160a01b0391909116600090815260036020818152604080842094845293905291812060019281018390558281019190915580546001600160a01b031916331790558055565b610f48611aee565b610f526000611b1b565b565b6002546001600160a01b0316610f7c5760405162461bcd60e51b815260040161039690611e3e565b610f84611ac4565b6001600160a01b038216600090815260046020908152604080832084845290915290205460ff161515600114610fcc5760405162461bcd60e51b815260040161039690611e6a565b6001600160a01b03821660009081526003602090815260408083208484529091529020600290810154146110425760405162461bcd60e51b815260206004820152601a60248201527f746f6b656e2069736e2774206c697374656420666f72206269640000000000006044820152606401610396565b6001600160a01b03821660009081526003602081815260408084208585529091529091200154156110c15760405162461bcd60e51b815260206004820152602360248201527f746f6b656e206269642d7075726368617365206973206e6f7420617661696c61604482015262626c6560e81b6064820152608401610396565b6001600160a01b03821660009081526003602090815260408083208484529091529020600101543410156111075760405162461bcd60e51b815260040161039690611e9a565b6040516331a9108f60e11b8152600481018290526000906001600160a01b03841690636352211e90602401602060405180830381865afa15801561114f573d6000803e3d6000fd5b505050506040513d601f19601f820116820180604052508101906111739190611ecd565b9050336001600160a01b038216036111b457506001600160a01b038216600090815260036020818152604080842085855290915290912060019101556107a8565b6001600160a01b038316600081815260036020908152604080832086845290915280822060010154905163152a902d60e11b815260048101869052602481019190915290918291632a55205a90604401610d7f565b611211611aee565b6001600160a01b0381166112735760405162461bcd60e51b8152602060048201526024808201527f4e6577206f776e65722063616e6e6f7420626520746865207a65726f206164646044820152637265737360e01b6064820152608401610396565b61127c81611b1b565b50565b6002546001600160a01b03166112a75760405162461bcd60e51b815260040161039690611e3e565b600254604051635fa15ebb60e01b81526001600160a01b0390911690635fa15ebb906112d7908790600401611c3f565b602060405180830381865afa1580156112f4573d6000803e3d6000fd5b505050506040513d601f19601f820116820180604052508101906113189190611f6c565b15156001146113815760405162461bcd60e51b815260206004820152602f60248201527f5468657265206973206e6f20636f6c6c656374696f6e20686176696e6720737060448201526e65636966696564206164647265737360881b6064820152608401610396565b6040516331a9108f60e11b81526004810184905284906001600160a01b03821690636352211e90602401602060405180830381865afa1580156113c8573d6000803e3d6000fd5b505050506040513d601f19601f820116820180604052508101906113ec9190611ecd565b6001600160a01b0316336001600160a01b03161461145d5760405162461bcd60e51b815260206004820152602860248201527f4f6e6c7920746f6b656e206f776e65722063616e206c6973742074686520636f604482015267363632b1ba34b7b760c11b6064820152608401610396565b506040805160808101825233815260208082019485528183019384526000606083018181526001600160a01b0398891680835260038085528684208a85528552868420955186546001600160a01b0319169b169a909a17855596516001808601919091559551600285015551929097019190915592855260048352808520938552929091529120805460ff19169091179055565b60008060008061150085611b6b565b6040517f19457468657265756d205369676e6564204d6573736167653a0a3332000000006020820152603c81018a90529295509093509150600090600190605c0160408051601f198184030181528282528051602091820120600084529083018083525260ff851690820152606081018690526080810185905260a0016020604051602081039080840390855afa15801561159f573d6000803e3d6000fd5b5050604051601f1981015192506001600160a01b03831691507ff6d79cfcb9708d9f4b28f65131c535b79a8b75259bb06a7a8bd12e1229ebac7090600090a293505050505b92915050565b6002546001600160a01b03166116125760405162461bcd60e51b815260040161039690611e3e565b61161a611ac4565b836001600160a01b03166116648484848080601f0160208091040260200160405190810160405280939291908181526020018383808284376000920191909152506114f192505050565b6001600160a01b0316146116ae5760405162461bcd60e51b8152602060048201526011602482015270496e76616c6964207369676e617475726560781b6044820152606401610396565b6040516331a9108f60e11b8152600481018690526000906001600160a01b03881690636352211e90602401602060405180830381865afa1580156116f6573d6000803e3d6000fd5b505050506040513d601f19601f8201168201806040525081019061171a9190611ecd565b604051635c46a7ef60e11b81529091506001600160a01b0388169063b88d4fde9061174d90849089908b90600401611f18565b600060405180830381600087803b15801561176757600080fd5b505af115801561177b573d6000803e3d6000fd5b50506040516331a9108f60e11b8152600481018990526001600160a01b0388811693508a169150636352211e90602401602060405180830381865afa1580156117c8573d6000803e3d6000fd5b505050506040513d601f19601f820116820180604052508101906117ec9190611ecd565b6001600160a01b03167f385e2c488cb7a2bbc3ef9e47bd11723c0a929dd6c7d11b5a92dda7e6eece333260405160405180910390a3506001600160a01b0386166000908152600360208181526040808420898552909152822060019181018290558181019290925581546001600160a01b03191633179091558055505050505050565b611877611aee565b6001600160a01b038116611273576000604051631e4fbdf760e01b81526004016103969190611c3f565b6002546001600160a01b03166118c95760405162461bcd60e51b815260040161039690611e3e565b6001600160a01b038316600090815260046020908152604080832085845290915290205460ff1615156001146119115760405162461bcd60e51b815260040161039690611e6a565b6001600160a01b03831660009081526003602090815260408083208584529091529020600290810154146119835760405162461bcd60e51b81526020600482015260196024820152781d1bdad95b881a5cdb89dd081b1a5cdd1959081d1bc8189a59603a1b6044820152606401610396565b6001600160a01b03831660009081526003602081815260408084208685529091529091200154156119f65760405162461bcd60e51b815260206004820152601d60248201527f746f6b656e20626964696e67206973206e6f7420617661696c61626c650000006044820152606401610396565b6001600160a01b03831660009081526003602090815260408083208584529091529020600101548111611a865760405162461bcd60e51b815260206004820152603260248201527f50726f766964656420636f696e732073686f756c64206265206d6f7265207468604482015271185b881d1a194818dd5c9c995b9d08189a5960721b6064820152608401610396565b6001600160a01b0392909216600090815260036020908152604080832093835292905220600181019190915580546001600160a01b03191633179055565b600260015403611ae757604051633ee5aeb560e01b815260040160405180910390fd5b6002600155565b6000546001600160a01b03163314610f52573360405163118cdaa760e01b81526004016103969190611c3f565b600080546001600160a01b038381166001600160a01b0319831681178455604051919092169283917f8be0079c531659141344cd1fd0a4f28419497f9722a3daafe3b4186f6b6457e09190a35050565b60008060008351604114611bbc5760405162461bcd60e51b8152602060048201526018602482015277092dcecc2d8d2c840e6d2cedcc2e8eae4ca40d8cadccee8d60431b6044820152606401610396565b50505060208101516040820151606090920151909260009190911a90565b6001600160a01b038116811461127c57600080fd5b60008060408385031215611c0257600080fd5b8235611c0d81611bda565b946020939093013593505050565b600060208284031215611c2d57600080fd5b8135611c3881611bda565b9392505050565b6001600160a01b0391909116815260200190565b60008060008060808587031215611c6957600080fd5b8435611c7481611bda565b966020860135965060408601359560600135945092505050565b634e487b7160e01b600052604160045260246000fd5b60008060408385031215611cb757600080fd5b82359150602083013567ffffffffffffffff80821115611cd657600080fd5b818501915085601f830112611cea57600080fd5b813581811115611cfc57611cfc611c8e565b604051601f8201601f19908116603f01168101908382118183101715611d2457611d24611c8e565b81604052828152886020848701011115611d3d57600080fd5b8260208601602083013760006020848301015280955050505050509250929050565b60008060008060008060a08789031215611d7857600080fd5b8635611d8381611bda565b9550602087013594506040870135611d9a81611bda565b935060608701359250608087013567ffffffffffffffff80821115611dbe57600080fd5b818901915089601f830112611dd257600080fd5b813581811115611de157600080fd5b8a6020828501011115611df357600080fd5b6020830194508093505050509295509295509295565b600080600060608486031215611e1e57600080fd5b8335611e2981611bda565b95602085013595506040909401359392505050565b602080825260129082015271139195119858dd1bdc9e481b9bdd081cd95d60721b604082015260600190565b6020808252601690820152751d1bdad95b881cda1bdd5b19081899481b1a5cdd195960521b604082015260600190565b602080825260199082015278139bdd08195b9bdd59da0818dbda5b9cc81c1c9bdd9a591959603a1b604082015260600190565b600060208284031215611edf57600080fd5b8151611c3881611bda565b60008060408385031215611efd57600080fd5b8251611f0881611bda565b6020939093015192949293505050565b6001600160a01b039384168152919092166020820152604081019190915260806060820181905260009082015260a00190565b818103818111156115e457634e487b7160e01b600052601160045260246000fd5b600060208284031215611f7e57600080fd5b81518015158114611c3857600080fdfea2646970667358221220e24dd7a712bc5981065c47f38b4575d66b3da122a803dca9365d53ab9e553fe164736f6c63430008140033",
  "linkReferences": {},
  "deployedLinkReferences": {}
}